:020000040000FA
:100000000C9474050C949C050C949C050C949C0514
:100010000C949C050C949C050C949C050C949C05DC
:100020000C949C050C949C050C949C050C949C05CC
:100030000C949C050C9449180C949C050C949C05FC
:100040000C9488160C949C050C94F8160C94D216FB
:100050000C949C050C949C050C949C050C949C059C
:100060000C942A170C949C0508000000BE922449A9
:10007000123EABAAAA2ABECDCCCC4C3E00000080DA
:10008000BEABAAAAAA3E00000000BF000000803F4D
:100090000000000000084178D3BB4387D1133D190D
:1000A0000E3CC3BD4282AD2B3E68EC8276BED98F3A
:1000B000E1A93E4C80EFFFBE01C4FF7F3F0000007E
:1000C00000000000000023002600290000000000BE
:1000D000003E5B4F5B3E3E6B4F6B3E1C3E7C3E1CCE
:1000E000183C7E3C181C577D571C1C5E7F5E1C0014
:1000F000183C1800FFE7C3E7FF0018241800FFE7CB
:10010000DBE7FF30483A060E2629792926407F058D
:100110000507407F05253F5A3CE73C5A7F3E1C1CA3
:1001200008081C1C3E7F14227F22145F5F005F5F63
:1001300006097F017F006689956A6060606060944F
:10014000A2FFA29408047E040810207E2010080854
:100150002A1C08081C2A08081E101010100C1E0C5F
:100160001E0C30383E3830060E3E0E0600000000F1
:100170000000005F00000007000700147F147F14D8
:10018000242A7F2A1223130864623649562050001D
:1001900008070300001C2241000041221C002A1C09
:1001A0007F1C2A08083E08080080703000080808F4
:1001B0000808000060600020100804023E51494514
:1001C0003E00427F400072494949462141494D3332
:1001D0001814127F1027454545393C4A4949314199
:1001E000211109073649494936464949291E000067
:1001F00014000000403400000008142241141414BC
:100200001414004122140802015909063E415D59A7
:100210004E7C1211127C7F494949363E41414122B0
:100220007F4141413E7F494949417F090909013EDA
:10023000414151737F0808087F00417F4100204001
:10024000413F017F081422417F404040407F021C13
:10025000027F7F0408107F3E4141413E7F0909092A
:10026000063E4151215E7F091929462649494932F6
:1002700003017F01033F4040403F1F2040201F3FBC
:100280004038403F63140814630304780403615941
:10029000494D43007F414141020408102000414183
:1002A000417F04020102044040404040000307082F
:1002B0000020545478407F2844443838444444282B
:1002C000384444287F385454541800087E090218D2
:1002D000A4A49C787F0804047800447D400020405A
:1002E000403D007F1028440000417F40007C04789E
:1002F00004787C080404783844444438FC182424E6
:100300001818242418FC7C08040408485454542465
:1003100004043F44243C4040207C1C2040201C3CE2
:100320004030403C44281028444C9090907C4464D9
:10033000544C44000836410000007700000041366C
:10034000080002010204023C2623263C1EA1A161F2
:10035000123A4040207A3854545559215555794124
:100360002254547842215554784020545579400CF9
:100370001E527212395555555939545454593955DC
:100380005454580000457C410002457D420001451F
:100390007C407D1211127DF0282528F07C545545B3
:1003A000002054547C547C0A097F4932494949321F
:1003B0003A4444443A324A4848303A4141217A3A30
:1003C00042402078009DA0A07D3D4242423D3D40FC
:1003D00040403D3C24FF2424487E4943662B2FFCAB
:1003E0002F2BFF0929F620C0887E09032054547959
:1003F000410000447D413048484A32384040227A2A
:10040000007A0A0A727D0D19317D2629292F2826A6
:100410002929292630484D402038080808080808AE
:100420000808382F10C8ACBA2F102834FA00007B07
:10043000000008142A142222142A1408550055001A
:1004400055AA55AA55AAFF55FF55FF000000FF0009
:10045000101010FF00141414FF001010FF00FF1004
:1004600010F010F0141414FC001414F700FF000036
:10047000FF00FF1414F404FC141417101F10101FB5
:10048000101F1414141F00101010F0000000001FA3
:10049000101010101F10101010F010000000FF10AE
:1004A0001010101010101010FF10000000FF1400AA
:1004B00000FF00FF00001F10170000FC04F41414DC
:1004C0001710171414F404F40000FF00F7141414A8
:1004D00014141414F700F7141414171410101F1028
:1004E0001F141414F4141010F010F000001F101F4B
:1004F0000000001F14000000FC140000F010F010B9
:1005000010FF10FF141414FF141010101F0000002F
:1005100000F010FFFFFFFFFFF0F0F0F0F0FFFFFF33
:100520000000000000FFFF0F0F0F0F0F384444388A
:1005300044FC4A4A4A347E02020606027E027E02D9
:1005400063554941633844443C04407E201E2006E4
:10055000027E020299A5E7A5991C2A492A1C4C7221
:1005600001724C304A4D4D303048784830BC625AA8
:10057000463D3E494949007E0101017E2A2A2A2A38
:100580002A44445F444440514A444040444A514014
:100590000000FF0103E080FF000008086B6B0836D5
:1005A00012362436060F090F060000181800000046
:1005B0001010003040FF0101001F01011E00191D35
:1005C0001712003C3C3C3C00000000000001030707
:1005D0000F1F3F7F0080C0E0F0F8FCFEDB40A4A6C8
:1005E0002EAF2000A1C8D300408DAED580A800005A
:1005F000600000000000000000000000000000E0BB
:100600000000000000000000000000000001E00009
:1006100000000000000000000000000001F00000E9
:10062000000000000000000000000003F0000000D7
:100630000000000000000000000007F000000000C3
:1006400000000000000000000007F80000000000AB
:1006500000000000000000000FF800000003C000D0
:100660007E000001E0007F0FF800000003C000FEE4
:10067000000001E000FFEFF800000003C000FE00F2
:100680000001E000FFFFF800000003C000F00000E0
:10069000000F007FFE7FC0000003C000F0000000DC
:1006A0000F003FFE7FF83FF1FBCFFCFEF3BC3DEFB8
:1006B000E01FFE7FFF7FFBFFDFFEFEFFBC3DEFE0A4
:1006C0001FC6FFFF7FFBFFDFFEFEFFBC3DEFE00F1D
:1006D000E3C7FE787BC3DE1EF0FFBC3DEF0007FFE3
:1006E00087FC787BC3DE1EF0F83C3DEF0001FFFF86
:1006F000F0007BC3C01EF0F03C3DEF0001F37FE053
:100700003FFBC3CFFEF0F03C3DEF0003E33F807FB3
:10071000FBC3DFFEF0F03C3DEF0007E73C00787BD9
:10072000C3DE1EF0F03C3DEF0007FFBE00787BC348
:10073000DE1EF0F03C3DEF0007FFFE00787BC3DEDD
:100740001EF0F03C3DEF000FFFFE007FFBFFDFFEE1
:10075000F0F03FFDEFE00FFFFF007FFBFFDFFEF05B
:10076000F03FFDEFE00FF9FF003E79F9CF9EF0F08A
:100770001F3DE7E01FF1FF00000000000000000047
:100780000000001F80FF007FFFFFFFFFFFFFFFFF54
:10079000FFE01C007F007FFFFFFFFEB46D888D1817
:1007A000E000001F007FFFFFFFFE95AD7DB577E005
:1007B00000000F007FFFFFFFFEA5AD9D8D19E0003B
:1007C0000006007FFFFFFFFEB5ADEDB57EE0000047
:1007D0000000000180000000000000000000038015
:1007E00000000000000000000007C0000000000042
:1007F0000000000007C00000000000000000000F23
:10080000C00000000000000000001FE00000000029
:1008100000000000001FE0000000000000000000D9
:100820003FE00000000000000000003FF00000007A
:100830000000000000007FF0000000000000001F2A
:10084000F87FF0000000000000003FFE7FF0000095
:1008500000000000003FFF7FF000000000000000EB
:100860001FFFFBE0000000000000000FFFF9FFC0C9
:100870000000000000000FFFF9FFF800000000007A
:100880000007FFF1FFFF00000000000003FC73FF02
:10089000FF80000000000001FE3FFFFF800000001D
:1008A000000000FF1E0FFF000000000000007FFEA0
:1008B0001FFC000000000000003FFFFFF8000000E8
:1008C000000000000FDFFFE0000000000000001F3C
:1008D00019FFC0000000000000003F3CFF000000C6
:1008E00000000000007E7CF8000000000000000016
:1008F0007FFE7C0000000000000000FFFFFC000005
:10090000000000000000FFFFFE00000000000000EB
:1009100000FFFFFE0000000000000001FFEFFE00EE
:1009200000000000000001FFCFFE000000000000FA
:100930000003FF07FE0000000000000003FC07FEAC
:100940000000000000000003F003FE0000000000B3
:100950000000018000FE0000000000000000000018
:100960007E000000000000000000003E00000000CB
:100970000000000000000C000000000000078000E4
:10098000FC000003C0000000078001FC000003C061
:10099000000000078001FC000003C0000000078089
:1009A00001E00000001E000000078001E0000000E0
:1009B0001E007FE3F79FF9FDE7787BDFC0FFF7FFBD
:1009C000BFFDFDFF787BDFC0FFF7FFBFFDFDFF78B8
:1009D0007BDFC0F0F787BC3DE1FF787BDE00F0F7FE
:1009E00087BC3DE1F0787BDE0000F787803DE1E0E9
:1009F000787BDE007FF7879FFDE1E0787BDE00FFFC
:100A0000F787BFFDE1E0787BDE00F0F787BC3DE1D2
:100A1000E0787BDE00F0F787BC3DE1E0787BDE002C
:100A2000F0F787BC3DE1E0787BDE00FFF7FFBFFD1C
:100A3000E1E07FFBDFC0FFF7FFBFFDE1E07FFBDF11
:100A4000C07CF3F39F3DE1E03E7BCFC0000000009F
:100A500000000000000000FFFFFFFFFFFFFFFFFF9F
:100A6000FFC0FFFFFFFFFD68DB111A31C0FFFFFF72
:100A7000FFFD2B5AFB6AEFC0FFFFFFFFFD4B5B3B07
:100A80001A33C0FFFFFFFFFD6B5BDB6AFDC0000098
:100A90000000240027002A00000000002500280094
:100AA0002B000404040404040404020202020202EF
:100AB0000303030303030102040810204080010222
:100AC00004081020010204081020000000080002A1
:100AD00001000003040700000000000000002200E5
:100AE000FF2100007018671E11241FBECFEFD8E051
:100AF000DEBFCDBF23E0A8ECB1E001C01D92A33959
:100B0000B207E1F711E0A0E0B1E0EEE6F7E402C0E1
:100B100005900D92A83CB107D9F715E0C3E7D5E0E1
:100B200004C02197FE010E94A621C237D107C9F750
:100B30000E9405190C94AA230C9400000895833098
:100B400081F028F4813099F08230A9F0089587303F
:100B5000A9F08830C9F08430B1F4809180008F7D95
:100B600003C0809180008F7780938000089584B5C2
:100B70008F7784BD089584B58F7DFBCF8091B000C1
:100B80008F778093B00008958091B0008F7DF9CF6A
:100B90001F93CF93DF93282F30E0F901E653F54FF1
:100BA0008491F901EA54F54FD491F901EE55F54FCE
:100BB000C491CC23A9F0162F81110E949F05EC2F20
:100BC000F0E0EE0FFF1FE856F54FA591B4918FB7F7
:100BD000F894EC91111108C0D095DE23DC938FBFFF
:100BE000DF91CF911F910895DE2BF8CFCF93DF9344
:100BF00090E0FC01EA54F54F24918E55954FFC018D
:100C000084918823C9F090E0880F991FFC01E25776
:100C1000F54FA591B491FC01E856F54FC591D491DB
:100C200061110DC09FB7F8948C91209582238C930D
:100C30008881282328839FBFDF91CF910895623058
:100C400051F49FB7F8943C91822F809583238C9325
:100C5000E8812E2BEFCF8FB7F894EC912E2B2C93AD
:100C60008FBFEACF3FB7F89480918B0290918C02AE
:100C7000A0918D02B0918E0226B5A89B05C02F3F92
:100C800019F00196A11DB11D3FBFBA2FA92F982FB2
:100C90008827BC01CD01620F711D811D911D42E0AD
:100CA000660F771F881F991F4A95D1F708958F9275
:100CB0009F92AF92BF92CF92DF92EF92FF924B0141
:100CC0005C010E9432066B017C010E9432066C19A5
:100CD0007D098E099F09683E734081059105A8F33F
:100CE00021E0821A9108A108B10888EEC80E83E0BD
:100CF000D81EE11CF11C81149104A104B10429F750
:100D0000FF90EF90DF90CF90BF90AF909F908F902B
:100D100008952FB7F89460918702709188028091AE
:100D2000890290918A022FBF0895CF92DF92EF92AD
:100D3000FF92CF93DF93C0E0D1E0CC80DD80EE80E6
:100D4000FF802AEA3FED4FEF5FE3C701B6010E9443
:100D5000DC1E288139814A815B810E94E01F6887FF
:100D600079878A879B87C882D982EA82FB826C83D3
:100D70007D838E839F830E94BF209B013E5FA09155
:100D80007F02B09180020E94D11F2AE0969587953C
:100D9000779567952A95D1F770938B0060938A00B9
:100DA000DF91CF91FF90EF90DF90CF90089508955D
:100DB0000895862F642F0C94F605AF92BF92CF92C0
:100DC000DF92EF92FF920F931F93CF93DF936C010B
:100DD0007B018B01040F151FEB015E01AE18BF08EC
:100DE000C017D10759F06991D601ED91FC9101909E
:100DF000F081E02DC6010995892B79F7C501DF91B6
:100E0000CF911F910F91FF90EF90DF90CF90BF9007
:100E1000AF900895FC01538D448D252F30E0842F31
:100E200090E0821B930B541710F0CF960895019712
:100E30000895FC01918D828D981761F0A28DAE0FFF
:100E4000BF2FB11D5D968C91928D9F5F9F73928F86
:100E500090E008958FEF9FEF0895FC01918D828DB2
:100E6000981731F0828DE80FF11D858D90E008957F
:100E70008FEF9FEF0895FC01918D228D892F90E0D7
:100E8000805C9F4F821B91098F739927089583E996
:100E900092E00E943B0721E0892B09F420E0822F99
:100EA000089580E090E0892B29F00E944707811186
:100EB0000C9400000895FC01A48DA80FB92FB11D5A
:100EC000A35ABF4F2C91848D90E001968F73992780
:100ED000848FA689B7892C93A089B1898C9183705E
:100EE00080648C93938D848D981306C00288F38957
:100EF000E02D80818F7D80830895EF92FF920F9384
:100F00001F93CF93DF93EC0181E0888F9B8D8C8DB5
:100F100098131AC0E889F989808185FF15C09FB7A9
:100F2000F894EE89FF896083E889F989808183706C
:100F3000806480839FBF81E090E0DF91CF911F911B
:100F40000F91FF90EF900895F62E0B8D10E00F5F3C
:100F50001F4F0F731127E02E8C8D8E110CC00FB612
:100F600007FCFACFE889F989808185FFF5CFCE01AA
:100F70000E945B07F1CFEB8DEC0FFD2FF11DE35AC3
:100F8000FF4FF0829FB7F8940B8FEA89FB8980812D
:100F90008062CFCFCF93DF93EC01888D8823B9F0A7
:100FA000AA89BB89E889F9898C9185FD03C0808174
:100FB00086FD0DC00FB607FCF7CF8C9185FFF2CFF1
:100FC000808185FFEDCFCE010E945B07E9CFDF91E5
:100FD000CF910895EF92FF920F931F93CF93DF93DA
:100FE000EC01EC80FD806E157F050CF070C057FFA2
:100FF00004C0240F351F50E040E08E819F81FA012C
:10100000E20FF31F8E179F071CF49C01241B350B66
:10101000121613060CF05BC0922F842F86958695CE
:1010200086958E9DD0018F9DB00D11246A0F7B1F78
:10103000AF8DB8A1A60FB71F477049F188E0841B98
:10104000482F682F70E0FB01EC52FA4FE49128170B
:1010500008F063C0621B71092FEF30E002C03595C4
:1010600027956A95E2F7E2230130110539F0B0F1D6
:101070000230110561F58C91E82702C08C91E82BB4
:10108000EC93941720F12C813D81A20FB31FE92F1F
:10109000E41BE83078F00230110521F58E2F9C9189
:1010A00090959C932C813D81A20FB31F885088306E
:1010B000B0F7E770EE2359F0F0E0E453FA4FE49113
:1010C00001301105F9F010F10230110519F1DF912D
:1010D000CF911F910F91FF90EF900895E0958C9123
:1010E000E823CECF81E00115110509F480E0819558
:1010F0009E2F8C932C813D81A20FB31F9850983066
:10110000C0F7D7CF8C91E82BEC93E1CFE0958C9191
:10111000E823FACF8C91E827F7CF0130110509F4C5
:10112000ADCFE0F20230110509F4A5CFAE0DBF1D21
:10113000AECF0F931F93CF93DF9377FF04C0260F9B
:10114000371F70E060E0DC011496CD91DC91FB016B
:10115000E20FF31FCE17DF071CF49E01261B370B8F
:10116000121613064CF5FA0157FD3796A3E0F595D4
:10117000E795AA95E1F7EC9FD001ED9FB00DFC9F9C
:10118000B00D11246A0F7B1FDC015F96ED91FC917D
:10119000E60FF71F4770552781E090E001C0880FE8
:1011A0004A95EAF7482F0130110559F0A8F02E0FA3
:1011B0003F1F02301105E1F0DF91CF911F910F9198
:1011C00008952E0F3F1FE217F307B1F38191DF015E
:1011D0001197842B8C93F7CF80952E0F3F1FE2172A
:1011E000F30751F39191DF01119798239C93F7CF67
:1011F000E217F30709F38191DF01119784278C939C
:10120000F7CF0F931F93FA01DC0156964C91569736
:101210004230E9F04330A1F1413061F514964D912F
:101220005C91DA01AE1BBF0BFD01E21BF30B77FDF6
:101230000BC0DC0116964D915C916417750724F480
:10124000AB01BF010E9499081F910F910895149658
:101250004D915C91DA01A61BB70BBD01615071097C
:10126000DC0116964D915C91DA01AE1BBF0BFD01BE
:10127000E21BF30B77FDE8CFAF010E94EA07E4CF52
:1012800016964D915C91DA01A61BB70BBD0161501A
:101290007109CDCF0F931F93FA01DC0156964C9143
:1012A00056974230A9F0433091F1413019F5149628
:1012B0004D915C91DA01AE1BBF0BFD013197F7FD3B
:1012C00004C0AB01BF010E94EA071F910F9108956E
:1012D00014964D915C91DA01A61BB70BBD01DC01A0
:1012E00016964D915C91DA01AE1BBF0BFD01319753
:1012F000621B730BF7FDE9CFDC0116964D915C91F3
:10130000E417F50714F7AF010E949908DECF16968F
:101310004D915C91DA01A61BB70BBD01621B730BEB
:10132000CECFFC0177FD64C0808591856817790771
:101330000CF05EC057FD5CC0828593854817590745
:101340000CF056C086898230B1F0833029F18130AB
:1013500041F484819581841B950BAB01BC016150E4
:1013600071092130310509F108F443C022303105FB
:1013700009F463C0089584819581DC01A61BB70B35
:10138000BD016150710986819781DC01A41BB50BF9
:10139000AD0141505109E5CF86819781861B970B9E
:1013A000BA01AC0141505109DCCFCA0157FD079683
:1013B000A3E095958795AA95E1F7A481B5818A9FC9
:1013C00090018B9F300D9A9F300D1124620F731F77
:1013D000078CF0A1E02DE60FF71F4770552721E09D
:1013E00030E001C0220F4A95EAF78081822B80838A
:1013F0000895CA0157FD079633E0959587953A956C
:10140000E1F7A481B5818A9F90018B9F300D9A9F4F
:10141000300D1124620F731F078CF0A1E02DE60F31
:10142000F71F4770552781E090E001C0880F4A956B
:10143000EAF7809590818923DACFCA0157FD079694
:1014400023E0959587952A95E1F7A481B5818A9F38
:1014500090018B9F300D9A9F300D1124620F731FE6
:10146000078CF0A1E02DE60FF71F4770552721E00C
:1014700030E001C0220F4A95EAF780818227B7CF7A
:1014800020912E02260F3327331F21323105ECF431
:1014900020915202FC0190E080E0243069F082E06B
:1014A0000895A0912E022191AC01425F5D4FA40FDF
:1014B000B52FB11D2C930196861798F380912E02BB
:1014C000680F60932E0280E0089581E008951092E5
:1014D000520281E0809354021092530261E082E153
:1014E0000E94C80561E083E10E94C805E9EBF0E0D5
:1014F00080818E7F808380818D7F808388E480934C
:10150000B80085E48093BC000895CF93DF9391E009
:1015100090930D028823B9F0C091B800D091BA0021
:101520008091BC008A7B8093BC0060E082E10E94D5
:10153000C80560E083E10E94C8050E94670AD09355
:10154000BA00C093B800DF91CF910895E0917E0278
:1015500080917D02E81730F4F0E0E851FE4F808181
:1015600090E008958FEF9FEF089590917E02809113
:101570007D022FEF3FEF981748F4E92FF0E0E85194
:10158000FE4F208130E09F5F90937E02C901089555
:1015900080917D0290917E02891B990B0895CF92D4
:1015A000DF92EF92FF920F931F93CF93DF937C0113
:1015B000CB018A0120919202222389F0EB016B0179
:1015C000C40ED51ECC15DD0569F06991D701ED91EA
:1015D000FC910190F081E02DC7010995F3CF642FB4
:1015E0000E94400AC801DF91CF911F910F91FF9097
:1015F000EF90DF90CF900895CF93DF931F92CDB7F8
:10160000DEB76983209192022223F9F020918F02A4
:10161000203258F021E030E0FC013383228390E057
:1016200080E00F90DF91CF91089580919002E82F94
:10163000F0E0E853FE4F998190838F5F8093900292
:1016400080938F0281E090E0ECCF61E0CE010196C3
:101650000E94400AF7CFCF92DF92EF92FF920F9352
:101660001F93CF93DF93D0918F0281E0D13208F0A6
:101670009CC0C09191020E9432066B017C01809156
:10168000520281116CC082E08093520281E080930B
:1016900054028FEF8093510210927602D09375021C
:1016A000A8ECB1E0E5E5F2E080E0D8138DC010923F
:1016B000770280917702CC0FC82BC093770280917C
:1016C0005302813009F084C0109253020E94320606
:1016D0006B017C01809177028093BB0080910902AD
:1016E00090910A02A0910B02B0910C02892B8A2BD7
:1016F0008B2BA1F00E9432060091090210910A0280
:1017000020910B0230910C026C197D098E099F0902
:10171000061717072807390708F442C08091BC0054
:1017200083FDD8CF85EC8093BC000E9432066B010C
:101730007C0180915202823009F44CC080915102A8
:101740008F3F09F469C080915102803209F466C06C
:1017500080915102803309F463C084E026C08091F7
:10176000090290910A02A0910B02B0910C02892B00
:101770008A2B8B2B09F483CF0E9432060091090239
:1017800010910A0220910B0230910C026C197D0914
:101790008E099F09061717072807390708F06FCF2A
:1017A000809108020E94850A85E0109290021092B2
:1017B0008F0210929202DF91CF911F910F91FF90B3
:1017C000EF90DF90CF9008959D9191938F5F6DCFB3
:1017D00085EEA9CF8091090290910A02A0910B0297
:1017E000B0910C02892B8A2B8B2B09F4A2CF0E947B
:1017F00032060091090210910A0220910B023091E9
:101800000C026C197D098E099F0906171707280716
:10181000390708F08ECFC4CF80E0C7CF82E0C5CFB4
:1018200083E0C3CF08958EBD00000DB407FEFDCF49
:101830008EB50895EF92FF920F931F93CF93DF938E
:101840007C01C62F8091590390915A03009709F4A7
:1018500059C020915D0331E03093920220939102B0
:101860001092900210928F02DC01ED91FC91019098
:10187000F081E02D60E009958701EE24E394F12CDE
:10188000D1E0C1508091590390915A03CF3F91F11B
:10189000B0E2EB16F104D8F00E942B0B80915903B3
:1018A00090915A0320915D03D0939202209391026C
:1018B0001092900210928F02DC01ED91FC91019048
:1018C000F081E02D60E00995EE24E394F12C809105
:1018D000590390915A03F8016491DC01ED91FC9158
:1018E0000190F081E02D0995BFEFEB1AFB0A0F5F25
:1018F0001F4FC7CFDF91CF911F910F91FF90EF90B6
:101900000C942B0BE0916903F0916A039081809114
:101910006F038095892380838701C15008F438C004
:10192000F80184912091570330915803232B29F01B
:101930000E94130C0F5F1F4FF0CF28E030E040E80B
:10194000E0916503F091660390916D03582F542345
:10195000D9F05081952B9083E0916703F091680353
:10196000908150916E03952B9083E0916703F091E5
:101970006803508190916E039095952390834695CE
:1019800021503109E9F6D6CF508190959523E3CFC8
:10199000DF91CF911F910F91FF90EF9008951F93CA
:1019A000CF93DF93EC018D8D9E8D009721F1162F43
:1019B00029A131E03093920220939102109290027B
:1019C00010928F02DC01ED91FC910190F081E02DED
:1019D00060E009958D8D9E8DDC01ED91FC9101906B
:1019E000F081E02D612F09958D8D9E8DDF91CF9136
:1019F0001F910C942B0BADA5BEA59C918BA9809536
:101A000089238C938B8D9C8D892B31F0862FDF91D0
:101A1000CF911F910C94130C28E030E080E8A9A529
:101A2000BAA599A9462F4823C1F04C91942B9C93B9
:101A3000ABA5BCA59C914AA9942B9C93ABA5BCA536
:101A40004C919AA9909594239C93869521503109A5
:101A500031F7DF91CF911F9108954C919095942388
:101A6000E6CF8CBD9DBD0895DF92EF92FF920F935C
:101A70001F93CF93DF938091590390915A03892B41
:101A800009F498C02091710330917203409173035F
:101A90005091740360E074E284EF90E00E9484212E
:101AA0002051310941095109569547953795279598
:101AB0002093B80065E08EED9AE00E941A0C6091C8
:101AC000400361508CE393E00E94CF0C20914203CD
:101AD00030914303C901079697FD079633E095952A
:101AE00087953A95E1F72091400330914103829F19
:101AF0008001839F100D929F100D1124C0915B03F4
:101B0000D0915C038091590390915A030C0F1D1FD3
:101B1000009709F48FC020915D0331E03093920269
:101B2000209391021092900210928F02DC01ED91AD
:101B3000FC910190F081E02D60E40995EE24E3949E
:101B4000F12CDD24D3948091590390915A030C1702
:101B50001D0709F446C0B0E2EB16F104D8F00E946C
:101B60002B0B8091590390915A0320915D03D092E1
:101B70009202209391021092900210928F02DC0147
:101B8000ED91FC910190F081E02D60E40995EE2447
:101B9000E394F12C8091590390915A036991DC01EF
:101BA000ED91FC910190F081E02D0995BFEFEB1ACA
:101BB000FB0AC9CF8091570390915803892B31F0CC
:101BC00080917A0390917B030E94310DE0916B0329
:101BD000F0916C03908180917003809589238083BC
:101BE00069CF0E942B0B8091590390915A03892B46
:101BF00009F461C020917503309176034091770319
:101C00005091780360E074E284EF90E00E948421B8
:101C10002051310941095109569547953795279526
:101C20002093B800DF91CF911F910F91FF90EF901B
:101C3000DF900895E0916903F0916A0380819091AB
:101C40006F03892B80830C171D0769F289912091FE
:101C5000570330915803232B19F00E94130CF3CF34
:101C600028E030E040E8E0916503F0916603909150
:101C70006D03582F5423D9F05081952B9083E09118
:101C80006703F0916803908150916E03952B9083C8
:101C9000E0916703F0916803508190916E039095F5
:101CA00095239083469521503109E9F6CCCF508198
:101CB00090959523E3CFE0916B03F0916C038081C5
:101CC00090917003892B8083ADCF1F93CF93DF93C7
:101CD000EC01162F8D8D9E8D892BB1F12DA93EA97A
:101CE0004FA958AD60E074E284EF90E00E94842137
:101CF0002051310941095109569547953795279546
:101D00002093B80066EA111167EACE010E94CF0C59
:101D10008D8D9E8D892B41F129AD3AAD4BAD5CADDA
:101D200060E074E284EF90E00E9484212051310948
:101D30004109510956954795379527952093B80045
:101D4000DF91CF911F9108958B8D9C8D892B21F070
:101D50008EAD9FAD0E94310DEFA5F8A990818CA9A1
:101D6000809589238083CECFEFA5F8A980819CA997
:101D7000892B8083E5CF0895FC016370668B848195
:101D8000958126813781613039F0633029F0918760
:101D900080873387228708953187208793878287BA
:101DA00008952F923F924F925F926F927F928F92FF
:101DB0009F92AF92BF92CF92DF92EF92FF920F93DA
:101DC0001F93CF93DF93CDB7DEB76A970FB6F89422
:101DD000DEBF0FBECDBF9A8F898F7A8369834A0198
:101DE000D22E18870F833701BC2CDC0159962D9118
:101DF0003C915A972115310509F015C118968D911E
:101E00009C911997681779070CF0D7C11A968D9194
:101E10009C91481759070CF0D0C14C2C512CB6E0BE
:101E2000CB9E600D711D11247C876B8716161706DB
:101E30000CF0C3C1EA2DF0E0FA87E98793E0EE0FDA
:101E4000FF1F9A95E1F7F88BEF87CF01840F951F5D
:101E5000181619060CF0B1C1A98DBA8D58968C913F
:101E6000811104C0BFEABD1508F4D394A98DBA8DC1
:101E7000ED91FC9111970284F385E02DCD01099538
:101E8000B5E0DB9EC0011124E981FA81FC83EB837C
:101E9000312C212C9C0124533F4F388F2F8B4A2DFE
:101EA00050E05E8B4D8BEF89F88DE20DF31D449170
:101EB0009E828D82D12CC12C69817A81620D731D25
:101EC0007A8B698B842F90E09C8B8B8BE98DFA8DBC
:101ED000A081B18140FF82C0F1E0BF126FC0AF129C
:101EE0006DC01C96ED91FC912F813885A4014C0D9D
:101EF0005D1D69897A89898D9A8D0995EB89FC899F
:101F0000F595E7954E2F5FEFC51AD50A6D817E8155
:101F10008D899E89680F791F7E836D8398E0C9162D
:101F2000D10481F6AFEF2A1A3A0AEB81FC81E40D65
:101F3000F51DFC83EB83F5E02F16310409F0B3CFD8
:101F40002F81388526153705B9F0A98DBA8DED9109
:101F5000FC91B1E0BB1257C0AB1255C069817A81C8
:101F60006B5F7F4F0088F189E02D830128E030E02E
:101F7000A401898D9A8D0995A98DBA8DED91FC9159
:101F800011970688F789E02DCD016A960FB6F8946F
:101F9000DEBF0FBECDBFDF91CF911F910F91FF909C
:101FA000EF90DF90CF90BF90AF909F908F907F90F9
:101FB0006F905F904F903F902F9009941E96ED91F7
:101FC000FC91EF80F88409851A8592014D815E812C
:101FD0006B817C81898D9A8D099590CF2F81388571
:101FE0002615370509F48ACF31E0B31207C0A312D2
:101FF00005C01C96ED91FC91930178CF1E96ED9152
:10200000FC917301E0CF6B857C85641975090684AA
:10201000F785E02D73010F8518899201A401898D40
:102020009A8D0995A9CFF9013496949132974591EB
:102030005491D91AB7E0DB9E400D511D1124F901CE
:10204000259134913C8B2B8BFA0125903490FA0129
:102050003296749031963491398B329664903196E1
:10206000449041E04C1518F04A1508F07FC0662DE9
:10207000062C000C770B7C836B83842D042C000CC6
:10208000990B9E838D83A98DBA8DED91FC9111974B
:102090000284F385E02DCD010995512CD12CC12C62
:1020A000EA2DF0E0FA87E9872B2D30E03C872B877B
:1020B000A401440D511D47FC5A95588F4F8B6981DF
:1020C0007A81660D711D67FC7A957E876D877989A7
:1020D000C71608F051CF2C2D30E04D815E81420FA4
:1020E000531FA985BA854A9FC0014B9F900D5A9FE7
:1020F000900D1124FC01E80DF91DF88BEF87852D5B
:10210000612C4F89588D420F531F5E8B4D8B671486
:1021100008F050C044244394480E877041F4C10134
:102120000196EB89FC89E20DF31DD4901C01D7FECA
:1021300019C0A98DBA8DED91FC91662D70E0B1E0CA
:10214000BB1219C0AB1217C02D853E85620F731FDD
:102150000484F585E02D2F8138854D895E89898D30
:102160009A8D0995DD0C6394842DD1CF1E821D823A
:102170001C821B8288CF4B815C81640F751FAB85ED
:10218000BC856A9FC0016B9F900D7A9F900D1124B2
:1021900069817A81680F791F0684F785E02DEF80C9
:1021A000F88409851A859D014F855889898D9A8DF6
:1021B0000995D8CF570CC3948ACF6A960FB6F89476
:1021C000DEBF0FBECDBFDF91CF911F910F91FF906A
:1021D000EF90DF90CF90BF90AF909F908F907F90C7
:1021E0006F905F904F903F902F9008958F929F92A5
:1021F000AF92CF92EF92FF920F931F93CF93DF9303
:10220000EC01262F898D9A8D009709F051C06A3014
:10221000D1F41D861C868D8948E0849F900111248D
:102220008E859F85820F931F9F878E8781E090E028
:10223000DF91CF911F910F91FF90EF90CF90AF90D2
:102240009F908F9008956D3089F3CC88AD888F89E9
:102250008823C1F08C859D8536E0C39E800D911D3D
:102260001124488559854817590764F44E855F85C0
:102270001D861C8638E0A39EC0011124840F951F83
:102280009F878E87EA88FB88088919894E855F8534
:102290006C857D85CE010E94D10E2C898C859D8513
:1022A00046E0249F800D911D11249D878C87BECF11
:1022B0006A3069F41D861C86FC013896E4912D89EC
:1022C0008E859F85E29F800D911D1124ADCF6D30CD
:1022D00009F4ACCFFC0134963491631708F4A6CF0F
:1022E0003296E491E61708F4A1CFFC01329685906E
:1022F0009490462F431B342F47E0349F800C911C51
:102300001124F401329634913196E4913323A9F1EA
:10231000EE2399F1CC88F4013596E491AD884F898C
:10232000442301F10E2E000CFF0BE30FF11DCE9E96
:10233000A001CF9E500D11246C857D85460F571F3F
:1023400068857985641775076CF44E855F851D86F1
:102350001C86FC013896E491AE9E400D511D11245F
:102360005F874E87EA88FB88088919894E855F85D3
:102370006C857D85CE010E94D10EF4013496E491E6
:102380002C898C859D85E29F800D911D11248DCF18
:102390006F927F928F929F92AF92BF92CF92DF9275
:1023A000EF92FF920F931F93CF93DF93EC016B019A
:1023B0005A0139014801E881F9810284F385E02D51
:1023C0000995E881F9810288F389E02D870193015D
:1023D000A501B601CE010995A501480D591D415031
:1023E0005109E881F9810288F389E02D9301B60152
:1023F000CE010995E881F9810088F189E02D9401E9
:10240000A501B601CE010995C60CD71CB6016150D5
:102410007109E881F9810088F189E02D9401A50115
:10242000CE010995E881F9810688F789E02DCE0172
:10243000DF91CF911F910F91FF90EF90DF90CF90A0
:10244000BF90AF909F908F907F906F9009946F9204
:102450007F928F929F92AF92BF92CF92DF92EF9234
:10246000FF920F931F93CF93DF935C01EB016A01FF
:10247000490138018701DC01ED91FC916217730776
:1024800019F5641675062CF0962D872D3A01C92E84
:10249000D82E9601261937092F5F3F4F048CF58DF2
:1024A000E02DA301BE01C5010995DF91CF911F91D8
:1024B0000F91FF90EF90DF90CF90BF90AF909F90E3
:1024C0008F907F906F9008954615570591F42617C9
:1024D000370724F0892D4B01C22FD82F9E012819D0
:1024E00039092F5F3F4F068CF78DE02DA601B4010F
:1024F000DACF0284F385E02D0995D501ED91FC91A9
:102500000488F589E02D83019401A601BE01C5016F
:102510000995D501ED91FC910688F789E02DC5015B
:10252000DF91CF911F910F91FF90EF90DF90CF90AF
:10253000BF90AF909F908F907F906F900994EF9293
:10254000FF920F931F93DC011A960D911C911B971C
:1025500018962D913C911997ED91FC9100A0F1A155
:10256000E02D7B0150E040E070E060E009951F91B4
:102570000F91FF90EF9008954F925F926F927F922C
:102580008F929F92AF92BF92CF92DF92EF92FF9283
:102590000F931F93CF93DF936C012B015A013901E5
:1025A0004801DC01ED91FC910284F385E02D099551
:1025B000E201640C751CD601ED91FC91C615D7059E
:1025C0005CF40088F189E02D87019401A501BE012A
:1025D000C60109952196EFCF0688F789E02DC6013F
:1025E000DF91CF911F910F91FF90EF90DF90CF90EF
:1025F000BF90AF909F908F907F906F905F904F9023
:1026000009948F929F92AF92BF92CF92DF92EF92F6
:10261000FF920F931F93CF93DF93EC015B014A016D
:102620006901E881F9810284F385E02D099595011E
:102630002C0D3D1D21503109E881F9810488F5896F
:10264000E02D78018401A401B501CE010995E8814E
:10265000F9810688F789E02DCE01DF91CF911F9196
:102660000F91FF90EF90DF90CF90BF90AF909F9031
:102670008F9009948F929F92AF92BF92CF92DF92E8
:10268000EF92FF920F931F93CF93DF93EC015B01C7
:102690004A0169017801E881F9810284F385E02D1E
:1026A0000995C80CD91C860101501109E881F981EE
:1026B0000488F589E02D9501A401B501CE010995A5
:1026C000E881F9810688F789E02DCE01DF91CF916D
:1026D0001F910F91FF90EF90DF90CF90BF90AF9040
:1026E0009F908F900994EF92FF920F931F93DC01BC
:1026F000ED91FC9100A0F1A1E02D09951F910F91A2
:10270000FF90EF9008950F931F93DC01ED91FC91E2
:10271000068CF78DE02D09951F910F9108950F9369
:102720001F93DC01ED91FC91048CF58DE02D099552
:102730001F910F910895DC01ED91FC910084F185CA
:10274000E02D09943F924F925F926F927F928F9209
:102750009F92AF92BF92CF92DF92EF92FF920F9330
:102760001F93CF93DF935C017B014A01690139011B
:1027700087E0680E711C93E0759467949A95E1F771
:102780002B01400E511E10E000E0312CD0E0C0E0E3
:10279000CE0187709927330C892B59F4FE0183E011
:1027A000F595E7958A95E1F7E00FF11FE80DF91D22
:1027B000349037FE0AC021E030E0A701B5016C0F6C
:1027C0007D1F8CE393E00E949B132196CC16DD06BF
:1027D000F9F68FEFE81AF80A060D171DE414F50450
:1027E000A9F6DF91CF911F910F91FF90EF90DF90AD
:1027F000CF90BF90AF909F908F907F906F905F90A1
:102800004F903F9008952F923F924F925F926F9218
:102810007F928F929F92AF92BF92CF92DF92EF9270
:10282000FF920F931F93CF93DF9300D000D000D07F
:10283000CDB7DEB73C016A013E832D83FC82EB827B
:102840005801A41AB50AB7FE03C0B194A194B10807
:102850008D809E80861A970A97FE03C0919481947A
:1028600091088A149B045CF0902F812F0D811E81AA
:102870009D838E839C2D8D2D6B01692F782F0C15D8
:102880001D055CF09D818E817E836D83692F782F7D
:10289000902F812F8601C92ED82E1601201A310AB9
:1028A0002B012D813E81421A530A57FE03C05194D9
:1028B00041945108710137FE03C03FEFE31AF30A58
:1028C000F594E7948D819E81861797075CF5A1E0CA
:1028D000B0E0BA83A983C016D1064CF1D301ED91C3
:1028E000FC910484F585E02D2B813C81A8016D814C
:1028F0007E818A149B041CF04D815E81B801C30166
:102900000995E418F508F7FE0AC02D813E818981FA
:102910009A81280F391F3E832D83E20CF31C0F5F31
:102920001F4FD9CF2FEF3FEF3A832983D4CF26967D
:102930000FB6F894DEBF0FBECDBFDF91CF911F91D0
:102940000F91FF90EF90DF90CF90BF90AF909F904E
:102950008F907F906F905F904F903F902F90089551
:10296000089590E080E008950895CF93DF93FC01EF
:10297000218930E0F901E653F54F8491F901EA54D9
:10298000F54FD491F901EE55F54FC491CC2379F070
:1029900081110E949F05EC2FF0E0EE0FFF1FEE5318
:1029A000FF4FA591B491EC91ED2381E009F480E013
:1029B0008170DF91CF9108958F929F92AF92BF92D5
:1029C000CF92DF92EF92FF9281E480937C0080911E
:1029D0007A00806480937A0080917A0086FDFCCF33
:1029E0006091780070917900072E000C880B990B8C
:1029F0000E947D1E20E030E040EA50E40E94DC1E90
:102A000020E030EC4FE754E40E944D209B01AC01E4
:102A100060E070E080E291E40E944D2020E030E030
:102A200040EA50E40E94DC1E20E030E040E251E445
:102A30000E94E01F20E030E04AE754E40E94DC1EE0
:102A40000E9402216B017C0129E537E44CEB53E342
:102A50000E94DC1EA70196010E94DC1EA7019601C0
:102A60000E94DC1E4B015C0123E73FE745E759E389
:102A7000C701B6010E94DC1E2BEE3FEF43E95AE38B
:102A80000E94E11F9B01AC01C501B4010E94E11F3E
:102A90009B01AC0160E070E080E89FE30E944D2064
:102AA00023E333E948E853E40E94E01FFF90EF90EE
:102AB000DF90CF90BF90AF909F908F90089520911E
:102AC000420330914303C901079697FD079623E01F
:102AD000959587952A95E1F7209140033091410320
:102AE000829FA001839F500D929F500D112470E092
:102AF00060E080915B0390915C030C949C230F93A6
:102B00001F93CF93DF93EC018B010E945F15ECE3E1
:102B1000F3E081E090E0938B828B918B808B848BB0
:102B2000858B15861486178706874C815D816881A1
:102B30007981CF010E94DD06DF91CF911F910F9126
:102B40000C94340D0E948E23FC01808191810097AA
:102B500011F00C9448220895FB0101900020E9F740
:102B60003197AF01461B570BDC01ED91FC910280C0
:102B7000F381E02D09948F929F92AF92BF92EF92D2
:102B8000FF920F931F93CF93DF93CDB7DEB7A1973B
:102B90000FB6F894DEBF0FBECDBF7C01FA01CB01AA
:102BA00019A2223008F42AE08E010F5D1F4F822EF9
:102BB000912CB12CA12CBF01A50194010E9484216C
:102BC000F901CA016A300CF5605DD8016E938D0180
:102BD000232B242B252B79F790E080E0109721F010
:102BE000BD01C7010E94AC15A1960FB6F894DEBFD7
:102BF0000FBECDBFDF91CF911F910F91FF90EF904E
:102C0000BF90AF909F908F900895695CDECFEF9258
:102C1000FF920F931F93CF93DF93EC017B011982F7
:102C200018821B821A821D821C82FB0101900020E7
:102C3000E9F731978F01061B170BB8016F5F7F4FC4
:102C400090E080E00E94D1220097B9F099838883B8
:102C50001B830A832C813D81232B11F4FC011082FC
:102C60001D830C83B70188819981DF91CF911F91DA
:102C70000F91FF90EF900C94A32388819981009786
:102C800011F00E944822198218821D821C821B8228
:102C90001A82DF91CF911F910F91FF90EF900895CD
:102CA00085ED8093BC008091090290910A02A09169
:102CB0000B02B0910C020796A11DB11D23E0B69541
:102CC000A795979587952A95D1F72091BC0024FD6B
:102CD00003C01092520208954091090250910A02D5
:102CE00060910B0270910C02452B462B472B69F328
:102CF0000097A105B10541F02AE22A95F1F700C03D
:102D00000197A109B109E1CF809108020C94850ACD
:102D10001F920F920FB60F9211242F933F938F9310
:102D20009F93AF93BF938091870290918802A09167
:102D30008902B0918A023091860223E0230F2D3759
:102D400058F50196A11DB11D20938602809387023C
:102D500090938802A0938902B0938A0280918B029B
:102D600090918C02A0918D02B0918E020196A11DCE
:102D7000B11D80938B0290938C02A0938D02B0932F
:102D80008E02BF91AF919F918F913F912F910F90A4
:102D90000FBE0F901F90189526E8230F0296A11DD5
:102DA000B11DD2CF1F920F920FB60F9211242F9305
:102DB0003F934F935F936F937F938F939F93AF93C3
:102DC000BF93EF93FF9383E992E00E945B07FF912B
:102DD000EF91BF91AF919F918F917F916F915F9193
:102DE0004F913F912F910F900FBE0F901F9018950C
:102DF0001F920F920FB60F9211242F938F939F93D0
:102E0000EF93FF93E091A302F091A4028081E091FF
:102E1000A902F091AA0282FD1BC090818091AC02B0
:102E20008F5F8F732091AD02821741F0E091AC0269
:102E3000F0E0ED56FD4F958F8093AC02FF91EF913E
:102E40009F918F912F910F900FBE0F901F9018950B
:102E50008081F4CF1F920F920FB60F9211242F93FF
:102E60003F934F935F936F937F938F939F93AF9312
:102E7000BF93EF93FF938091B900887F803609F468
:102E80004AC0F0F5883209F4A7C018F5803109F47A
:102E90009BC0B8F4882309F4F9C0883009F494C0C1
:102EA000FF91EF91BF91AF919F918F917F916F9122
:102EB0005F914F913F912F910F900FBE0F901F90F8
:102EC0001895883109F488C0803251F780935102F7
:102ED00014C0803409F49DC040F48033B9F38833C2
:102EE000F9F68093510285ECB0C0803509F485C0B5
:102EF000883509F496C0883499F60E945016D0CFD0
:102F0000883909F48CC038F5883729F050F48836B0
:102F100011F0803729F683E080935202109250021C
:102F200057C0883809F47BC0803919F0803809F01F
:102F3000B7CF80915002803208F071C0E09150020A
:102F400081E08E0F809350028091BB00F0E0E05D45
:102F5000FD4F80833DC0803B39F0E0F4803A09F4B6
:102F600079C0883A09F09CCF84E080935202109295
:102F70002F0210922E02E0917B02F0917C020995C3
:102F800080912E0281110FC081E080932E02109259
:102F90000E0209C0803C09F4A6CF883C09F4A3CFF7
:102FA000883B09F07DCFE0912F0281E08E0F809366
:102FB0002F02F0E0E25FFD4F80818093BB00909193
:102FC0002F0280912E0229C0809177028093BB004E
:102FD00085EC8093BC0064CF90917602809175025D
:102FE000981758F5E091760281E08E0F8093760273
:102FF000F0E0EB5AFD4F8081E9CFE091760281E06D
:103000008E0F809376028091BB00F0E0EB5AFD4F6B
:10301000808390917602809175029817C8F285E8B6
:10302000D8CFE091760281E08E0F80937602809176
:10303000BB00F0E0EB5AFD4F808380915402811178
:103040005CCF81E08093530284EA8093BC001092AD
:10305000520226CF85EC8093BC00109252028091E0
:103060005002803230F4E0915002F0E0E05DFD4F1C
:1030700010826091500270E0E0917902F0917A0242
:1030800080E392E00995109250020ACF109251020B
:1030900034CF1F920F920FB60F9211242F933F93AC
:1030A0004F935F936F937F938F939F93AF93BF9350
:1030B000EF93FF93E0910C01F0910D010995FF91C1
:1030C000EF91BF91AF919F918F917F916F915F91A0
:1030D0004F913F912F910F900FBE0F901F90189519
:1030E000E3E9F2E01382128248EE53E060E070E020
:1030F000448355836683778388E191E0918380835D
:1031000085EC90E09587848784EC90E097878687AC
:1031100080EC90E0918B808B81EC90E0938B828BA4
:1031200082EC90E0958B848B86EC90E0978B868B7D
:10313000118E128E138E148EA0E3B3E013961C92A0
:103140001E92129714964D935D936D937C931797EF
:103150008AE291E011969C938E93ECE7F3E0128261
:103160001382148215828AE090E09783868310860A
:10317000118A88E691E09183808381E0828BECE381
:10318000F3E01382128240E850E05583448320E448
:1031900030E0378326835187408733872287168A1A
:1031A0001586148617861686858B848B2FEF3FEF46
:1031B000338B228B318B208B878B108E128E118E4E
:1031C0008CE391E091838083148E138EB68FA58F4C
:1031D00010A2178E8FEF84A385A386A387A384E014
:1031E00080A780E89AE1A6E0B0E085AB96ABA7ABFC
:1031F000B0AF80EA96E8A1E0B0E081AF92AFA3AFB4
:10320000B4AF80E586AF17AE0895CF93DF9300D0BB
:1032100000D000D0CDB7DEB7789484B5826084BD8D
:1032200084B5816084BD85B5826085BD85B58160CA
:1032300085BD80916E00816080936E001092810048
:103240008091810082608093810080918100816003
:1032500080938100809180008160809380008091C4
:10326000B10084608093B1008091B0008160809350
:10327000B00080917A00846080937A0080917A0017
:10328000826080937A0080917A00816080937A00D6
:1032900080917A00806880937A001092C100E0915A
:1032A000A302F091A40282E08083E0919F02F0915A
:1032B000A0021082E091A102F091A2028FEC808323
:1032C0001092AB02E091A702F091A80286E0808301
:1032D000E091A502F091A602808180618083E09157
:1032E000A502F091A602808188608083E091A5020A
:1032F000F091A602808180688083E091A502F09120
:10330000A60280818F7D808380E18093810010926E
:10331000800080E293E0909387008093860021E113
:103320002093810031E0309381029093800280935A
:103330007F0290938700809386002093810061E054
:103340008AE00E94F6058091800080628093800070
:1033500010928B0010928A0080918102806180938C
:10336000810010926F0062E083E00E94F60583E026
:1033700080938D03109284038CE793E00E94B51430
:10338000882329F0809184038360809384030E94C2
:10339000890660937E0370937F03809380039093EC
:1033A000810382E390E0909383038093820361E042
:1033B00087E00E94F60580915B0390915C03892B66
:1033C00011F10E945F1520914203309143038091D7
:1033D000400390914103213231050CF0A3C1B901A2
:1033E0006052710977FF02C06F5F7F4F75956795D7
:1033F0008357910997FD019600E210E023E730E042
:103400004EEE55E0A2C12091420330914303C90121
:10341000079697FD0796B3E095958795BA95E1F7DE
:103420002091400330914103AC01429FC001439F72
:10343000900D529F900D11240E94AC2190935C033B
:1034400080935B03892B09F0BCCF0E945F156CE66B
:1034500071E083E992E00E94AC1564E971E083E9D0
:1034600092E00E94AC1567E971E0CE0101960E94DE
:10347000071667E070E0CE0101960E947F15CE012D
:1034800001960E94A41501E0AA24A394B12C2EE178
:10349000822E912C11E035E9232E36E0332E88EE72
:1034A000E82E83E0F82E809184038B7F8093840341
:1034B0008CE793E00E94B514D82E80918403869502
:1034C0008170D81609F424C30E94890660937E0394
:1034D00070937F0380938003909381038091840392
:1034E00052E08527809384038091840382FF20C06B
:1034F000817090918E0398131BC080918502802764
:10350000809385026DE971E083E992E00E94AC1539
:103510004091850250E070E060E02AE083E992E0AB
:103520000E94BB1564E971E083E992E00E94AC154A
:1035300080918502882309F43EC330920D012092C8
:103540000C0100936F0061E087E00E94C8051093B2
:10355000840261E070E080E090E00E94570681E024
:10356000E81AF10809F09FCF80918402882309F4BA
:103570002BC38091820290918302019690938302E3
:103580008093820262EA71E0CE0101960E940716E2
:1035900064E170E0CE0101960E947F15CE01019694
:1035A0000E94A4150E94DC146B017C01B0924F03B1
:1035B000A0924E03B0924D03A0924C03109350037F
:1035C00010935103909249038092480384E190E064
:1035D00090934B0380934A03A7019601C701B6015C
:1035E0000E944A2167EA71E081111BC02601370160
:1035F000E89477F82FEF3FEF4FE75FE7C301B201A1
:103600000E944A218111E5C22FEF3FEF4FE75FE7AC
:10361000C301B2010E94761E18160CF0DAC26BEAE2
:1036200071E08CE393E00E94AC150E94340DC090D1
:103630008202D0908302B0924F03A0924E03B092C8
:103640004D03A0924C03109350031093510390929A
:1036500049038092480342E350E050934B03409368
:103660004A030D2C000CEE08FF082AE0B701A60162
:10367000F7FE0DC06DE28CE393E00E94F610442744
:103680005527BA014C195D096E097F092AE08CE3C0
:1036900093E00E94BB150E94340D809182029091AC
:1036A0008302813991404CF080918502802780937C
:1036B000850210928302109282020E94DC1420E0A4
:1036C00030E040EA52E40E94F5201816F4F410921B
:1036D000850210926F0063EB71E0CE0101960E94AB
:1036E00007166BE170E0CE0101960E947F15CE01B6
:1036F00001960E94A41560E087E00E94C80568E872
:1037000073E180E090E00E94570680E090E0892B12
:1037100009F4C5CE0E944707882309F4C0CE0E9451
:103720000000BDCEB9016054710977FF02C06F5F20
:103730007F4F759567958255910997FD019600E435
:1037400010E022E530E04EEC57E0959587950E9419
:10375000A21382E080935E038091590390915A03F3
:10376000892B09F4DFC08CE380935D0310927E0205
:1037700010927D021092900210928F020E94670AAE
:1037800087ED96E090937C0280937B0288ED96E033
:1037900090937A02809379028091640387FD1EC022
:1037A00061E00E94F60561E0809164030E94C80513
:1037B00061E070E080E090E00E94570660E0809158
:1037C00064030E94C8056AE070E080E090E00E9417
:1037D000570661E0809164030E94C80580915903F7
:1037E00090915A03892B09F45CC1209171033091A7
:1037F0007203409173035091740360E074E284EFAC
:1038000090E00E94842120513109410951095695C7
:103810004795379527952093B80064E08AEE95E0A8
:103820000E941A0C6091420361508CE393E00E9465
:10383000CF0C64E086EE95E00E941A0C80915E0346
:1038400060E1813009F064E18CE393E00E94CF0CE9
:1038500064E082EE95E00E941A0C8FE88093790371
:1038600080914003909141038038910509F032C165
:1038700080914203909143038034910509F03AC14D
:1038800080915E03813009F023C18FE98093790331
:1038900012E16AED8CE393E00E94CF0C612F8CE380
:1038A00093E00E94CF0C61E88CE393E00E94CF0C80
:1038B000609179038CE393E00E94CF0C69ED8CE377
:1038C00093E00E94CF0C80915E0362E2813009F0A8
:1038D00061EF8CE393E00E94CF0C66E08CED95E005
:1038E0000E941A0C8091590390915A03892B09F474
:1038F00005C1209175033091760340917703509173
:10390000780360E074E284EF90E00E94842120510B
:1039100031094109510956954795379527952093C7
:10392000B80093CD61E0809162030E94F60561E0EA
:10393000809163030E94F60580916203082E000CBB
:10394000990BFC01EE55F54FE491F0E0EE0FFF1FEF
:10395000E856F54F2591349130936A03209369031B
:10396000FC01EA54F54FE491E0936F038091630307
:10397000082E000C990BFC01EE55F54FE491F0E098
:10398000EE0FFF1FE856F54FA591B491B0936C036D
:10399000A0936B03FC01EA54F54FE491E0937003AC
:1039A0008C91E82BEC938091570390915803892BCD
:1039B00009F434C01FB7F89480917802811127C0B0
:1039C000ECEAFAE08491E0ECFAE09491E82FF0E080
:1039D000EE0FFF1FE257F54FA591B491EC91E9234B
:1039E00021F461E08AE00E94C80561E08AE00E945B
:1039F000F6058CB580618CBD8CB580648CBD61E0B2
:103A00008DE00E94F60561E08BE00E94F605809152
:103A100078028F5F809378021FBFBECE61E08091F5
:103A200060030E94F60561E0809161030E94F60543
:103A300080916003082E000C990BFC01EE55F54FA8
:103A4000E491F0E0EE0FFF1FE856F54F2591349119
:103A50003093660320936503FC01EA54F54FE4912B
:103A6000E0936D0380916103082E000C990BFC011B
:103A7000EE55F54FE491F0E0EE0FFF1FE856F54FDD
:103A8000A591B491B0936803A0936703FC01EA5435
:103A9000F54FE491E0936E038C91E095E823EC936D
:103AA0007BCE8091570390915803892B31F0809100
:103AB0007A0390917B030E94310DE0916B03F091AA
:103AC0006C03908180917003809589238083A5CEBB
:103AD0008FECDCCE8036910569F4809142039091A1
:103AE0004303409739F480915E03813029F480E1EB
:103AF0008093790312E0CDCE8FEAFACFE0916B0389
:103B0000F0916C03808190917003892B80839DCC10
:103B10000E94890640907E0350907F03609080034E
:103B200070908103AB01BC014419550966097709FE
:103B30008091820390918303B0E0A0E04817590779
:103B40006A077B0708F4D0CC809184038170D81673
:103B500009F4CACC0E94890660937E0370937F03A8
:103B600080938003909381038091840380278460F5
:103B7000809384030E9489064090850350908603B9
:103B80006090870370908803641975098609970906
:103B90006093890370938A0380938B0390938C03C3
:103BA0000E94890660938503709386038093870340
:103BB0009093880399CC10926F0061E087E00E9497
:103BC000C80510928402C5CC109283021092820222
:103BD000D9CC2FEF3FEF4FE75FE4C701B6010E945A
:103BE000F52018161CF46FEA71E01BCD2FEF3FEFA4
:103BF0004FE75FECC701B6010E94761E87FDF3CF49
:103C000020E030E0A901C701B6010E94761E87FFBF
:103C100009C06DE28CE393E00E94F610F7FAF0948D
:103C2000F7F8F0942AE037ED43EA5BE3C701B60109
:103C30000E94E11F2B013C010E94C6206B017C0108
:103C40000E947B1E9B01AC01C301B2010E94E01FD8
:103C50002B013C012AE0B701A6018CE393E00E940E
:103C6000BB156EE28CE393E00E94F61020E030E09A
:103C700040E251E4C301B2010E94DC1E2B013C0171
:103C80000E94C6206B01F12CE12C2AE0B701A601AD
:103C90008CE393E00E94BB15C701B6010E947B1E16
:103CA0009B01AC01C301B2010E94E01F20E030E0A3
:103CB00040E251E40E94DC1E0E94C620AB0170E08D
:103CC00060E02AE08CE393E00E94BB15AECC8CE36D
:103CD00091E090933D0380933C0380915B0390912E
:103CE0005C03009711F00C94482208950E94B81EBE
:103CF00008F481E00895E89409C097FB3EF490959C
:103D00008095709561957F4F8F4F9F4F9923A9F0B4
:103D1000F92F96E9BB279395F69587957795679543
:103D2000B795F111F8CFFAF4BB0F11F460FF1BC087
:103D30006F5F7F4F8F4F9F4F16C0882311F096E91A
:103D400011C0772321F09EE8872F762F05C06623C8
:103D500071F096E8862F70E060E02AF09A95660F81
:103D6000771F881FDAF7880F9695879597F908953A
:103D7000990F0008550FAA0BE0E8FEEF161617067C
:103D8000E807F907C0F012161306E407F50798F0E4
:103D9000621B730B840B950B39F40A2661F0232BFD
:103DA000242B252B21F408950A2609F4A140A69579
:103DB0008FEF811D811D08950E94EF1E0C94601FDE
:103DC0000E94521F38F00E94591F20F0952311F0D5
:103DD0000C94491F0C944F1F11240C94941F0E94A3
:103DE000711F70F3959FC1F3950F50E0551F629FAF
:103DF000F001729FBB27F00DB11D639FAA27F00D44
:103E0000B11DAA1F649F6627B00DA11D661F829F6A
:103E10002227B00DA11D621F739FB00DA11D621F4F
:103E2000839FA00D611D221F749F3327A00D611D6C
:103E3000231F849F600D211D822F762F6A2F11244E
:103E40009F5750409AF0F1F088234AF0EE0FFF1F81
:103E5000BB1F661F771F881F91505040A9F79E3FD8
:103E6000510580F00C94491F0C94941F5F3FE4F3BC
:103E7000983ED4F3869577956795B795F795E7952E
:103E80009F5FC1F7FE2B880F911D9695879597F937
:103E9000089597F99F6780E870E060E008959FEFCC
:103EA00080EC089500240A941616170618060906D1
:103EB000089500240A9412161306140605060895A0
:103EC000092E0394000C11F4882352F0BB0F40F428
:103ED000BF2B11F460FF04C06F5F7F4F8F4F9F4F68
:103EE000089557FD9058440F551F59F05F3F71F0EA
:103EF0004795880F97FB991F61F09F3F79F0879551
:103F00000895121613061406551FF2CF4695F1DFD9
:103F100008C0161617061806991FF1CF8695710569
:103F2000610508940895E894BB2766277727CB019D
:103F300097F908952F923F924F925F926F927F92DE
:103F40008F929F92AF92BF92CF92DF92EF92FF92A9
:103F50000F931F93CF93DF93CDB7DEB7CA1BDB0B55
:103F60000FB6F894DEBF0FBECDBF09942A883988FA
:103F700048885F846E847D848C849B84AA84B98401
:103F8000C884DF80EE80FD800C811B81AA81B9810D
:103F9000CE0FD11D0FB6F894DEBF0FBECDBFED0121
:103FA0000895A29FB001B39FC001A39F700D811D12
:103FB0001124911DB29F700D811D1124911D089532
:103FC0005058BB27AA270E94F81F0C94601F0E941C
:103FD000521F38F00E94591F20F039F49F3F19F406
:103FE00026F40C944F1F0EF4E095E7FB0C94491F48
:103FF000E92F0E94711F58F3BA17620773078407ED
:10400000950720F079F4A6F50C94931F0EF4E09533
:104010000B2EBA2FA02D0B01B90190010C01CA0182
:10402000A0011124FF27591B99F0593F50F4503E2D
:1040300068F11A16F040A22F232F342F4427585F1F
:10404000F3CF469537952795A795F0405395C9F737
:104050007EF41F16BA0B620B730B840BBAF09150EF
:10406000A1F0FF0FBB1F661F771F881FC2F70EC08E
:10407000BA0F621F731F841F48F487957795679561
:10408000B795F7959E3F08F0B0CF9395880F08F04D
:104090009927EE0F9795879508950E9461200C94BB
:1040A000601F0E94591F58F00E94521F40F029F4CF
:1040B0005F3F29F00C94491F51110C94941F0C94EC
:1040C0004F1F0E94711F68F39923B1F3552391F399
:1040D000951B550BBB27AA2762177307840738F077
:1040E0009F5F5F4F220F331F441FAA1FA9F335D0D4
:1040F0000E2E3AF0E0E832D091505040E695001C88
:10410000CAF72BD0FE2F29D0660F771F881FBB1F41
:10411000261737074807AB07B0E809F0BB0B802D1F
:10412000BF01FF2793585F4F3AF09E3F510578F04B
:104130000C94491F0C94941F5F3FE4F3983ED4F312
:10414000869577956795B795F7959F5FC9F7880F1F
:10415000911D9695879597F90895E1E0660F771F71
:10416000881FBB1F621773078407BA0720F0621B02
:10417000730B840BBA0BEE1F88F7E09508950E942D
:10418000C6206894B1110C94941F08950E94791F61
:1041900088F09F5798F0B92F9927B751B0F0E1F008
:1041A000660F771F881F991F1AF0BA95C9F714C0B8
:1041B000B13091F00E94931FB1E008950C94931FC9
:1041C000672F782F8827B85F39F0B93FCCF38695F1
:1041D00077956795B395D9F73EF49095809570954E
:1041E00061957F4F8F4F9F4F08950E94B81E08F42E
:1041F0008FEF089516F00C944F210C944F1F689484
:104200000C94491F0E94791FA8F39923C1F3AEF3C0
:10421000DF93CF931F930F93FF92C92FDD2788233E
:104220002AF02197660F771F881FDAF720E030E029
:1042300040E85FEB9FE3883920F0803E38F021961C
:104240008F770E94E11FE8E6F0E004C00E94E11FC2
:10425000E5E9F0E00E945D218B01BE01EC01FB2E3F
:104260006F5771097595771F880B990B0E947D1EFA
:1042700028E132E741E35FE30E94EF1EAF2D980192
:10428000AE01FF900F911F91CF91DF910E94F81F17
:104290000C94601F0E94B81E880B990B08959F3FD5
:1042A00031F0915020F4879577956795B795880FF1
:1042B000911D9695879597F90895DF93CF931F9356
:1042C0000F93FF92EF92DF927B018C01689406C0FE
:1042D000DA2EEF010E94EF1EFE01E894A5912591D0
:1042E000359145915591A6F3EF010E94F81FFE010B
:1042F0009701A801DA9469F7DF90EF90FF900F9192
:104300001F91CF91DF910895A1E21A2EAA1BBB1B2A
:10431000FD010DC0AA1FBB1FEE1FFF1FA217B30791
:10432000E407F50720F0A21BB30BE40BF50B661FA7
:10433000771F881F991F1A9469F76095709580956B
:1043400090959B01AC01BD01CF010895EE0FFF1FB9
:104350000590F491E02D09940F931F93CF93DF9371
:104360008230910510F482E090E0E0919103F091A9
:10437000920330E020E0B0E0A0E0309799F42115FE
:10438000310509F44AC0281B390B24303105D8F512
:104390008A819B816115710589F1FB019383828379
:1043A000FE0111C0408151810281138148175907D4
:1043B000E0F04817590799F4109761F012960C93A2
:1043C000129713961C933296CF01DF91CF911F91D4
:1043D0000F9108950093910310939203F4CF211548
:1043E000310551F04217530738F0A901DB019A015A
:1043F000BD01DF01F801C1CFEF01F9CF9093920326
:1044000080939103CDCFFE01E20FF31F819391932F
:104410002250310939832883D7CF20918F033091DF
:104420009003232B41F4209110013091110130931E
:10443000900320938F0320910E0130910F012115DD
:10444000310541F42DB73EB740911201509113014F
:10445000241B350BE0918F03F0919003E217F307D3
:10446000A0F42E1B3F0B2817390778F0AC014E5FE4
:104470005F4F2417350748F04E0F5F1F509390038E
:1044800040938F03819391939FCFF0E0E0E09CCF26
:10449000CF93DF930097E9F0FC01329713821282E9
:1044A000A0919103B0919203ED0130E020E01097CC
:1044B000A1F420813181820F931F20918F033091CD
:1044C00090032817390709F061C0F0939003E09337
:1044D0008F03DF91CF910895EA01CE17DF07E8F54A
:1044E0004A815B819E0141155105B1F7E901FB83CA
:1044F000EA8349915991C40FD51FEC17FD0761F468
:10450000808191810296840F951FE90199838883A8
:10451000828193819B838A83F0E0E0E012968D9103
:104520009C9113970097B9F52D913C911197CD016E
:104530000296820F931F20918F03309190032817CA
:10454000390739F6309751F5109292031092910382
:10455000B0939003A0938F03BCCFD383C2834081D9
:104560005181840F951FC817D90761F44E5F5F4FC3
:1045700088819981480F591F518340838A819B818B
:10458000938382832115310509F0B0CFF093920314
:10459000E09391039ECFFD01DC01C0CF1382128214
:1045A000D7CFB0E0A0E0E7EDF2E20C949C1F8C01C5
:1045B000009751F4CB010E94AC218C01C801CDB70A
:1045C000DEB7E0E10C94B81FFC01E60FF71F9C0179
:1045D00022503109E217F30708F49DC0D901CD91AB
:1045E000DC911197C617D70798F0C530D10530F385
:1045F000CE0104978617970708F3C61BD70B22979F
:10460000C193D1936D937C93CF010E944822D6CF62
:104610005B01AC1ABD0A4C018C0E9D1EA09191034A
:10462000B0919203512C412CF12CE12C109731F5D3
:1046300080918F03909190038815990509F05CC0D3
:104640004616570608F058C080910E0190910F0150
:10465000009741F48DB79EB740911201509113011C
:10466000841B950BE817F90708F055C0F0939003E9
:10467000E0938F03F90171836083A0CF8D919C91AA
:10468000119712966C90129713967C901397A81519
:10469000B90559F56C0142E0C40ED11CCA14DB0403
:1046A00020F1AC014A195B09DA011296159780F0E6
:1046B0006282738251834083D9016D937C93E114AC
:1046C000F10471F0D7011396FC93EE93129776CF15
:1046D00022968C0F9D1FF90191838083F301EFCF08
:1046E000F0939203E093910369CF4816590608F4BA
:1046F0002C017D01D3019ACFCB010E94AC217C011A
:10470000009749F0AE01B8010E949323C8010E94AE
:104710004822870153CF10E000E050CF81E090E0C5
:10472000F8940C94AA23FB01DC0102C001900D92C5
:1047300041505040D8F70895DC0101C06D934150BD
:104740005040E0F70895FB01DC0101900D9200203C
:10475000E1F7089515E0C3E7D5E004C0FE010E942B
:10476000A6212196C437D107C9F7F894FFCF0000DE
:1047700000009A42764100000000B4140000930348
:104780008000000000007D07DD060A07CA073B071E
:1047900019072D0700000000FC0ACF0AB1149E057E
:1047A000C80AB50AA60A00000000F610DD06B1141A
:1047B000B01491099E059B1373138F138313031475
:1047C0009E05BC0E650E01094A09BC129F122712F4
:1047D000C81100000000B514D90650726F677261ED
:1047E0006D204E4965736B6F6E637A696E656A20E2
:1047F00070C499746C6920746F2074657374C3B34A
:1048000077000D0A0053544152540062746E3A000E
:10481000546D703A006E616E00696E66006F766668
:104820000050727A656B726F637A6F6E6120544DBF
:06483000502121210000CF
:107E0000112484B714BE81FFF0D085E080938100F7
:107E100082E08093C00088E18093C10086E0809377
:107E2000C20080E18093C4008EE0C9D0259A86E02C
:107E300020E33CEF91E0309385002093840096BBD3
:107E4000B09BFECF1D9AA8958150A9F7CC24DD24C4
:107E500088248394B5E0AB2EA1E19A2EF3E0BF2EE7
:107E6000A2D0813461F49FD0082FAFD0023811F036
:107E7000013811F484E001C083E08DD089C08234E0
:107E800011F484E103C0853419F485E0A6D080C0E4
:107E9000853579F488D0E82EFF2485D0082F10E0AE
:107EA000102F00270E291F29000F111F8ED06801E7
:107EB0006FC0863521F484E090D080E0DECF843638
:107EC00009F040C070D06FD0082F6DD080E0C81688
:107ED00080E7D80618F4F601B7BEE895C0E0D1E017
:107EE00062D089930C17E1F7F0E0CF16F0E7DF06D8
:107EF00018F0F601B7BEE89568D007B600FCFDCFD4
:107F0000A601A0E0B1E02C9130E011968C91119780
:107F100090E0982F8827822B932B1296FA010C0160
:107F200087BEE89511244E5F5F4FF1E0A038BF0790
:107F300051F7F601A7BEE89507B600FCFDCF97BE46
:107F4000E89526C08437B1F42ED02DD0F82E2BD052
:107F50003CD0F601EF2C8F010F5F1F4F84911BD097
:107F6000EA94F801C1F70894C11CD11CFA94CF0C13
:107F7000D11C0EC0853739F428D08EE10CD085E9AC
:107F80000AD08FE07ACF813511F488E018D01DD067
:107F900080E101D065CF982F8091C00085FFFCCF94
:107FA0009093C60008958091C00087FFFCCF809118
:107FB000C00084FD01C0A8958091C6000895E0E648
:107FC000F0E098E1908380830895EDDF803219F02E
:107FD00088E0F5DFFFCF84E1DECF1F93182FE3DFCA
:107FE0001150E9F7F2DF1F91089580E0E8DFEE27F6
:047FF000FF270994CA
:027FFE00040479
:00000001FF
